S014000073656E736F7268656C6D65742E73726563F7
S11300000C943E000C9450000C9450000C9450003E
S11300100C9450000C9450000C9450000C94C900A3
S11300200C9450000C9450000C9450000C9450000C
S11300300C9450000C9450000C9450000C945000FC
S11300400C9450000C9450000C9450000C945000EC
S11300500C9450000C9450000C9450000C945000DC
S11300600C9450000C9450000C9450000C945000CC
S11300700C9450000C9450000C94500011241FBE9A
S1130080CFEFD8E0DEBFCDBF21E0A0E0B1E001C0FA
S11300901D92A330B207E1F70E94D8000C941B0113
S11300A00C94000011B883EB84B983ED87B981EF18
S11300B08AB98CE08BB980E185BF85BFECE7F0E0BD
S11300C0808180668083EAE7F0E0808187688083AE
S11300D08CB580658CBDE1ECF0E080818861808323
S11300E0E2ECF0E080818660808383E38093C40047
S11300F01092C50081EC8093660084E080937300C5
S113010088E08093680008955D985C985E9A0895ED
S11301105D985C985E9808955D985E985C9A0895E1
S11301205C985E985D9A08952FEF84E39CE02150DB
S113013080409040E1F700C000000E9484002FEF4F
S113014084E39CE0215080409040E1F700C000002F
S11301500E948C002FEF84E39CE02150804090406B
S1130160E1F700C000000E9490002FEF84E39CE0C0
S1130170215080409040E1F700C000000E948800B8
S11301800895E0ECF0E0908195FFFDCF8093C600E8
S113019008951F920F920FB60F9211248F9381E04E
S11301A0809300018F910F900FBE0F901F901895B0
S11301B00E94520078940F2EFCE7EF2EF12CF02DC4
S11301C0CAE7D0E00F2EF8E7AF2EB12CF02D0F2E9A
S11301D0F9E7CF2ED12CF02D80910001882349F12D
S11301E00E9494001092000124C0F7018081807F56
S11301F080838081812B8083888180648883988137
S113020096FDFDCFF501808180930201F601808186
S113021080930101812F0E94C100809101010E94FD
S1130220C100809102010E94C1001F5F1430E9F6F1
S10D0230D3CF10E0DACFF894FFCF2B
S9030000FC
