:100000000C943E000C9450000C9450000C94500042
:100010000C9450000C9450000C9450000C94500020
:100020000C9450000C9450000C9450000C94500010
:100030000C9450000C9450000C9450000C94500000
:100040000C9450000C9450000C9450000C945000F0
:100050000C9450000C9450000C9450000C945000E0
:100060000C9450000C9450000C9450000C945000D0
:100070000C9450000C9450000C94500011241FBE9E
:10008000CFEFD8E0DEBFCDBF21E0A0E0B1E001C0FE
:100090001D92A030B207E1F70E947D000C948D0004
:1000A0000C94000011B883EB84B983ED87B981EF1C
:1000B0008AB98CE08BB980E185BF85BFECE7F0E0C1
:1000C00080818083EAE7F0E08081876880838CB557
:1000D00080658CBDE1ECF0E0808188618083E2EC9A
:1000E000F0E080818660808383E38093C400109277
:1000F000C50081EC80936600089578940E945200B8
:10010000E0ECF0E0A6ECB0E080818823ECF79C9175
:0E011000808185FFFDCF9C93F7CFF894FFCF41
:00000001FF
