S014000073656E736F7268656C6D65742E73726563F7
S11300000C943E000C9450000C9450000C9450003E
S11300100C9450000C9450000C9450000C94E60086
S11300200C9450000C9450000C9450000C9450000C
S11300300C9450000C9450000C9450000C945000FC
S11300400C9450000C9450000C9450000C945000EC
S11300500C9450000C9450000C9450000C945000DC
S11300600C9450000C9450000C9450000C945000CC
S11300700C9450000C9450000C94500011241FBE9A
S1130080CFEFD8E0DEBFCDBF21E0A0E0B1E001C0FA
S11300901D92A830B207E1F70E940E010C943001C2
S11300A00C94000011B883EB84B983ED87B981EF18
S11300B08AB98CE08BB980E185BF85BFECE7F0E0BD
S11300C0808180668083EAE7F0E0808187688083AE
S11300D08CB580658CBDE1ECF0E080818861808323
S11300E0E2ECF0E080818660808383E38093C40047
S11300F01092C50081EC8093660084E080937300C5
S113010088E08093680008950F931F93CF93DF9343
S1130110ECE7F0E08081807F8083C1E0D1E090E073
S11301200CE710E0EAE7F0E049E750E028E730E0C8
S1130130D8018C91807F8C938C91892B8C938081B6
S113014080648083808186FDFDCFDA018C91BE01BD
S113015061507109DB018C93D9018C9188839F5F75
S11301602296943029F7ECE7F0E08081807F808349
S113017080E091E0DF91CF911F910F9108955D98F8
S11301805C985E9A08955D985C985E9808952FEF48
S113019084E39CE0215080409040E1F700C00000DF
S11301A00E94BF002FEF84E39CE0215080409040E8
S11301B0E1F700C000000E94C3000895E0ECF0E005
S11301C0908195FFFDCF8093C60008951F920F92F2
S11301D00FB60F9211242F933F934F935F936F9316
S11301E07F938F939F93AF93BF93EF93FF930E945B
S11301F0C7000E94C7000E94C700FF91EF91BF9102
S1130200AF919F918F917F916F915F914F913F91AA
S11302102F910F900FBE0F901F90189578940E9405
S113022052000E948400EC0121968C01075F1F4F4D
S1130230FE01319780810E94DE0088810E94DE00E9
S11302402FEF89E698E1215080409040E1F700C00B
S113025000002296C017D10759F70E94C700E1CFCA
S1070260F894FFCF3C
S9030000FC
