S014000073656E736F7268656C6D65742E73726563F7
S11300000C943E000C9450000C9450000C9450003E
S11300100C9450000C9450000C9450000C94AB00C1
S11300200C9450000C9450000C9450000C9450000C
S11300300C9450000C9450000C9450000C945000FC
S11300400C9450000C9450000C9450000C945000EC
S11300500C9450000C9450000C9450000C945000DC
S11300600C9450000C9450000C9450000C945000CC
S11300700C9450000C9450000C94500011241FBE9A
S1130080CFEFD8E0DEBFCDBF21E0A0E0B1E001C0FA
S11300901D92A330B207E1F70E94BA000C94F50058
S11300A00C94000011B883EB84B983ED87B981EF18
S11300B08AB98CE08BB980E185BF85BFECE7F0E0BD
S11300C0808180668083EAE7F0E0808187688083AE
S11300D08CB580658CBDE1ECF0E080818861808323
S11300E0E2ECF0E080818660808383E38093C40047
S11300F01092C50081EC8093660084E080937300C5
S113010088E08093680008955D985C985E9A0895ED
S11301105D985C985E9808952FEF84E39CE02150ED
S113012080409040E1F700C000000E9484002FEF5F
S113013084E39CE0215080409040E1F700C000003F
S11301400E9488000895E0ECF0E0908195FFFDCFD7
S11301508093C60008951F920F920FB60F92112438
S11301608F9381E0809300018F910F900FBE0F90C9
S11301701F9018950E94520078940CE710E0CAE78B
S1130180D0E00F2EF8E7CF2ED12CF02D0F2EF9E76B
S1130190EF2EF12CF02D809100018823E1F00E94D4
S11301A08C001092000117C0888186FDFDCFF601F6
S11301B0808180930201F70180818093010180E0B6
S11301C00E94A300809101010E94A300809102017A
S11301D00E94A300E0CFF8018081807F808380812A
S11101E08083888180648883DFCFF894FFCF0A
S9030000FC
