:100000000C943E000C9450000C9450000C94500042
:100010000C9450000C9450000C9450000C94500020
:100020000C9450000C9450000C9450000C94500010
:100030000C9450000C9450000C9450000C94500000
:100040000C9450000C9450000C9450000C945000F0
:100050000C9450000C9450000C9450000C945000E0
:100060000C9450000C9450000C9450000C945000D0
:100070000C9450000C9450000C94500011241FBE9E
:10008000CFEFD8E0DEBFCDBF21E0A0E0B1E001C0FE
:100090001D92A030B207E1F70E94A4000C94AD00BD
:1000A0000C94000011B883EB84B983ED87B981EF1C
:1000B0008AB98CE08BB980E185BF85BFECE7F0E0C1
:1000C00080818083EAE7F0E08081876880838CB557
:1000D00080658CBD1092C5008FEF8093C40088EDC1
:1000E0008093C10086E08093C20008955D985C987B
:1000F0005E9A08955D985C985E9808952FE986E869
:1001000091E0215080409040E1F700C000000E9443
:1001100076002FE986E891E0215080409040E1F799
:1001200000C000000E947A000895CF93C82FE0EC31
:10013000F0E0908195FFFDCF0E947E00C093C60045
:100140000E947E00CF91089578940E9452008FE61D
:0E0150000E9495000E947E00FACFF894FFCF27
:00000001FF
