S014000073656E736F7268656C6D65742E73726563F7
S11300000C943E000C9450000C9450000C9450003E
S11300100C9450000C9450000C9450000C94B200BA
S11300200C9450000C9450000C9450000C9450000C
S11300300C9450000C9450000C9450000C945000FC
S11300400C9450000C9450000C9450000C945000EC
S11300500C9450000C9450000C9450000C945000DC
S11300600C9450000C9450000C9450000C945000CC
S11300700C9450000C9450000C94500011241FBE9A
S1130080CFEFD8E0DEBFCDBF21E0A0E0B1E001C0FA
S11300901D92A030B207E1F70E94DC000C94E4004A
S11300A00C94000011B883EB84B983ED87B981EF18
S11300B08AB98CE08BB980E185BF85BFECE7F0E0BD
S11300C080818083EAE7F0E08081876880838CB553
S11300D080658CBDE1ECF0E0808188618083E2EC96
S11300E0F0E080818660808383E38093C400109273
S11300F0C50081EC8093660084E08093730088E0FF
S11301008093680008955D985C985E9A08955D9860
S11301105C985E9808952FEF84E39CE02150804022
S11301209040E1F700C000000E9483002FEF84E3B9
S11301309CE0215080409040E1F700C000000E9404
S113014087000895E0ECF0E0908195FFFDCF809367
S1130150C6000895E0ECF0E080818823ECF78091FC
S1130160C60008951F920F920FB60F9211242F9379
S11301703F934F935F936F937F938F939F93AF932B
S1130180BF93EF93FF93F8940E948B000E948B001F
S11301900E948B007894FF91EF91BF91AF919F9152
S11301A08F917F916F915F914F913F912F910F901C
S11301B00FBE0F901F90189578940E9452000E94D1
S10F01C0AA000E94A200FBCFF894FFCF1D
S9030000FC
