S014000073656E736F7268656C6D65742E73726563F7
S11300000C943E000C9450000C9450000C9450003E
S11300100C9450000C9450000C9450000C94DE008E
S11300200C9450000C9450000C9450000C9450000C
S11300300C9450000C9450000C9450000C945000FC
S11300400C9450000C9450000C9450000C945000EC
S11300500C9450000C9450000C9450000C945000DC
S11300600C9450000C9450000C9450000C945000CC
S11300700C9450000C9450000C94500011241FBE9A
S1130080CFEFD8E0DEBFCDBF21E0A0E0B1E001C0FA
S11300901D92A930B207E1F70E94ED000C94120101
S11300A00C94000011B883EB84B983ED87B981EF18
S11300B08AB98CE08BB980E185BF85BFECE7F0E0BD
S11300C0808180668083EAE7F0E0808187688083AE
S11300D08CB580658CBDE1ECF0E080818861808323
S11300E0E2ECF0E080818660808383E38093C40047
S11300F01092C50081EC8093660084E080937300C5
S113010088E0809368000895CF93DF93ECE7F0E0F4
S11301108081807F8083C0E0D1E090E06CE770E074
S1130120EAE7F0E049E750E028E730E0DB018C91B2
S1130130807F8C938C91892B8C93808180648083C5
S1130140808186FDFDCFDA018C918883D9018C9161
S113015089839F5F2296943049F7ECE7F0E0808131
S1130160807F808380E091E0DF91CF9108955D9856
S11301705C985E9A08955D985C985E9808952FEF58
S113018084E39CE0215080409040E1F700C00000EF
S11301900E94B7002FEF84E39CE021508040904000
S11301A0E1F700C000000E94BB000895E0ECF0E01D
S11301B0908195FFFDCF8093C60008951F920F9202
S11301C00FB60F9211248F9381E0809308018F91D1
S11301D00F900FBE0F901F9018950E9452007894B4
S11301E00E948400EC018C01085F1F4F88810E94EB
S11301F0D60089810E94D6002FEF89E698E121502C
S113020080409040E1F700C000002296C017D1075B
S113021069F780910801882319F30E94BF001092A6
S10B02200801DECFF894FFCFC2
S9030000FC
